{
  "_format": "hh-sol-artifact-1",
  "contractName": "Faucet",
  "sourceName": "contracts/Faucet.sol",
  "abi": [
    {
      "inputs": [
        {
          "internalType": "address",
          "name": "_tokenContract",
          "type": "address"
        }
      ],
      "stateMutability": "nonpayable",
      "type": "constructor"
    },
    {
      "anonymous": false,
      "inputs": [
        {
          "indexed": true,
          "internalType": "address",
          "name": "Sender",
          "type": "address"
        },
        {
          "indexed": true,
          "internalType": "uint256",
          "name": "Amount",
          "type": "uint256"
        }
      ],
      "name": "ReturnToken",
      "type": "event"
    },
    {
      "anonymous": false,
      "inputs": [
        {
          "indexed": true,
          "internalType": "address",
          "name": "Receiver",
          "type": "address"
        },
        {
          "indexed": true,
          "internalType": "uint256",
          "name": "Amount",
          "type": "uint256"
        }
      ],
      "name": "SendToken",
      "type": "event"
    },
    {
      "inputs": [],
      "name": "amountAllowed",
      "outputs": [
        {
          "internalType": "uint256",
          "name": "",
          "type": "uint256"
        }
      ],
      "stateMutability": "view",
      "type": "function"
    },
    {
      "inputs": [],
      "name": "requestTokens",
      "outputs": [],
      "stateMutability": "nonpayable",
      "type": "function"
    },
    {
      "inputs": [
        {
          "internalType": "address",
          "name": "",
          "type": "address"
        }
      ],
      "name": "requestedAddress",
      "outputs": [
        {
          "internalType": "bool",
          "name": "",
          "type": "bool"
        }
      ],
      "stateMutability": "view",
      "type": "function"
    },
    {
      "inputs": [],
      "name": "returnTokens",
      "outputs": [],
      "stateMutability": "nonpayable",
      "type": "function"
    },
    {
      "inputs": [],
      "name": "tokenContract",
      "outputs": [
        {
          "internalType": "address",
          "name": "",
          "type": "address"
        }
      ],
      "stateMutability": "view",
      "type": "function"
    }
  ],
  "bytecode": "0x6080604052683635c9adc5dea0000060005534801561001d57600080fd5b50604051610a46380380610a46833981810160405281019061003f9190610158565b600073ffffffffffffffffffffffffffffffffffffffff168173ffffffffffffffffffffffffffffffffffffffff16036100ae576040517f08c379a00000000000000000000000000000000000000000000000000000000081526004016100a5906101e2565b60405180910390fd5b80600160006101000a81548173ffffffffffffffffffffffffffffffffffffffff021916908373ffffffffffffffffffffffffffffffffffffffff16021790555050610202565b600080fd5b600073ffffffffffffffffffffffffffffffffffffffff82169050919050565b6000610125826100fa565b9050919050565b6101358161011a565b811461014057600080fd5b50565b6000815190506101528161012c565b92915050565b60006020828403121561016e5761016d6100f5565b5b600061017c84828501610143565b91505092915050565b600082825260208201905092915050565b7f496e76616c696420746f6b656e20636f6e747261637420616464726573730000600082015250565b60006101cc601e83610185565b91506101d782610196565b602082019050919050565b600060208201905081810360008301526101fb816101bf565b9050919050565b610835806102116000396000f3fe608060405234801561001057600080fd5b50600436106100575760003560e01c8063359cf2b71461005c57806355a373d6146100665780635e33dba9146100845780639ad2cd14146100b4578063f9718fc8146100d2575b600080fd5b6100646100dc565b005b61006e6102e3565b60405161007b9190610521565b60405180910390f35b61009e6004803603810190610099919061056d565b610309565b6040516100ab91906105b5565b60405180910390f35b6100bc610329565b6040516100c991906105e9565b60405180910390f35b6100da61032f565b005b6000600160009054906101000a900473ffffffffffffffffffffffffffffffffffffffff1690506000548173ffffffffffffffffffffffffffffffffffffffff166370a08231306040518263ffffffff1660e01b815260040161013f9190610521565b602060405180830381865afa15801561015c573d6000803e3d6000fd5b505050506040513d601f19601f820116820180604052508101906101809190610630565b10156101c1576040517f08c379a00000000000000000000000000000000000000000000000000000000081526004016101b8906106ba565b60405180910390fd5b8073ffffffffffffffffffffffffffffffffffffffff1663a9059cbb336000546040518363ffffffff1660e01b81526004016101fe9291906106da565b6020604051808303816000875af115801561021d573d6000803e3d6000fd5b505050506040513d601f19601f82011682018060405250810190610241919061072f565b506001600260003373ffffffffffffffffffffffffffffffffffffffff1673ffffffffffffffffffffffffffffffffffffffff16815260200190815260200160002060006101000a81548160ff0219169083151502179055506000543373ffffffffffffffffffffffffffffffffffffffff167f916800025d85907d1e91e112659a8e7e77a17ea4de231b05f15bb381d3bfde6160405160405180910390a350565b600160009054906101000a900473ffffffffffffffffffffffffffffffffffffffff1681565b60026020528060005260406000206000915054906101000a900460ff1681565b60005481565b6000600160009054906101000a900473ffffffffffffffffffffffffffffffffffffffff16905060008173ffffffffffffffffffffffffffffffffffffffff166370a08231336040518263ffffffff1660e01b81526004016103919190610521565b602060405180830381865afa1580156103ae573d6000803e3d6000fd5b505050506040513d601f19601f820116820180604052508101906103d29190610630565b905060008111610417576040517f08c379a000000000000000000000000000000000000000000000000000000000815260040161040e906107a8565b60405180910390fd5b8173ffffffffffffffffffffffffffffffffffffffff166323b872dd3330846040518463ffffffff1660e01b8152600401610454939291906107c8565b6020604051808303816000875af1158015610473573d6000803e3d6000fd5b505050506040513d601f19601f82011682018060405250810190610497919061072f565b50803373ffffffffffffffffffffffffffffffffffffffff167fd9d61cf2e5f77156a361da57dc32b728d1c46a3917292e6b298bcde7cacf0b6d60405160405180910390a35050565b600073ffffffffffffffffffffffffffffffffffffffff82169050919050565b600061050b826104e0565b9050919050565b61051b81610500565b82525050565b60006020820190506105366000830184610512565b92915050565b600080fd5b61054a81610500565b811461055557600080fd5b50565b60008135905061056781610541565b92915050565b6000602082840312156105835761058261053c565b5b600061059184828501610558565b91505092915050565b60008115159050919050565b6105af8161059a565b82525050565b60006020820190506105ca60008301846105a6565b92915050565b6000819050919050565b6105e3816105d0565b82525050565b60006020820190506105fe60008301846105da565b92915050565b61060d816105d0565b811461061857600080fd5b50565b60008151905061062a81610604565b92915050565b6000602082840312156106465761064561053c565b5b60006106548482850161061b565b91505092915050565b600082825260208201905092915050565b7f46617563657420456d7074792100000000000000000000000000000000000000600082015250565b60006106a4600d8361065d565b91506106af8261066e565b602082019050919050565b600060208201905081810360008301526106d381610697565b9050919050565b60006040820190506106ef6000830185610512565b6106fc60208301846105da565b9392505050565b61070c8161059a565b811461071757600080fd5b50565b60008151905061072981610703565b92915050565b6000602082840312156107455761074461053c565b5b60006107538482850161071a565b91505092915050565b7f4e6f20746f6b656e7320746f2072657475726e00000000000000000000000000600082015250565b600061079260138361065d565b915061079d8261075c565b602082019050919050565b600060208201905081810360008301526107c181610785565b9050919050565b60006060820190506107dd6000830186610512565b6107ea6020830185610512565b6107f760408301846105da565b94935050505056fea26469706673582212202d5f2f5d2501fc5ac11684e1e753b7c343ba5dcceae93b4ae574b8f8c62cbe1964736f6c634300081c0033",
  "linkReferences": {},
  "deployedLinkReferences": {}
}