{
  "_format": "hh-sol-artifact-1",
  "contractName": "SBT",
  "sourceName": "contracts/SBT.sol",
  "abi": [
    {
      "inputs": [
        {
          "internalType": "string",
          "name": "name_",
          "type": "string"
        },
        {
          "internalType": "string",
          "name": "symbol_",
          "type": "string"
        }
      ],
      "stateMutability": "nonpayable",
      "type": "constructor"
    },
    {
      "inputs": [
        {
          "internalType": "address",
          "name": "to",
          "type": "address"
        }
      ],
      "name": "AlreadyMinted",
      "type": "error"
    },
    {
      "inputs": [
        {
          "internalType": "uint256",
          "name": "paid",
          "type": "uint256"
        },
        {
          "internalType": "uint256",
          "name": "required",
          "type": "uint256"
        }
      ],
      "name": "InsufficientPayment",
      "type": "error"
    },
    {
      "inputs": [
        {
          "internalType": "address",
          "name": "owner",
          "type": "address"
        }
      ],
      "name": "OwnableInvalidOwner",
      "type": "error"
    },
    {
      "inputs": [
        {
          "internalType": "address",
          "name": "account",
          "type": "address"
        }
      ],
      "name": "OwnableUnauthorizedAccount",
      "type": "error"
    },
    {
      "inputs": [
        {
          "internalType": "string",
          "name": "message",
          "type": "string"
        }
      ],
      "name": "SoulboundTokenNoTransfer",
      "type": "error"
    },
    {
      "inputs": [
        {
          "internalType": "uint256",
          "name": "tokenId",
          "type": "uint256"
        }
      ],
      "name": "TokenNonExistent",
      "type": "error"
    },
    {
      "inputs": [
        {
          "internalType": "address",
          "name": "caller",
          "type": "address"
        },
        {
          "internalType": "uint256",
          "name": "tokenId",
          "type": "uint256"
        }
      ],
      "name": "Unauthorized",
      "type": "error"
    },
    {
      "anonymous": false,
      "inputs": [
        {
          "indexed": true,
          "internalType": "address",
          "name": "owner",
          "type": "address"
        },
        {
          "indexed": true,
          "internalType": "address",
          "name": "approved",
          "type": "address"
        },
        {
          "indexed": true,
          "internalType": "uint256",
          "name": "tokenId",
          "type": "uint256"
        }
      ],
      "name": "Approval",
      "type": "event"
    },
    {
      "anonymous": false,
      "inputs": [
        {
          "indexed": true,
          "internalType": "address",
          "name": "owner",
          "type": "address"
        },
        {
          "indexed": true,
          "internalType": "address",
          "name": "operator",
          "type": "address"
        },
        {
          "indexed": false,
          "internalType": "bool",
          "name": "approved",
          "type": "bool"
        }
      ],
      "name": "ApprovalForAll",
      "type": "event"
    },
    {
      "anonymous": false,
      "inputs": [
        {
          "indexed": true,
          "internalType": "address",
          "name": "to",
          "type": "address"
        },
        {
          "indexed": true,
          "internalType": "uint256",
          "name": "tokenId",
          "type": "uint256"
        }
      ],
      "name": "Attest",
      "type": "event"
    },
    {
      "anonymous": false,
      "inputs": [
        {
          "indexed": false,
          "internalType": "uint256",
          "name": "oldPrice",
          "type": "uint256"
        },
        {
          "indexed": false,
          "internalType": "uint256",
          "name": "newPrice",
          "type": "uint256"
        }
      ],
      "name": "MintPriceChanged",
      "type": "event"
    },
    {
      "anonymous": false,
      "inputs": [
        {
          "indexed": true,
          "internalType": "address",
          "name": "previousOwner",
          "type": "address"
        },
        {
          "indexed": true,
          "internalType": "address",
          "name": "newOwner",
          "type": "address"
        }
      ],
      "name": "OwnershipTransferred",
      "type": "event"
    },
    {
      "anonymous": false,
      "inputs": [
        {
          "indexed": true,
          "internalType": "address",
          "name": "from",
          "type": "address"
        },
        {
          "indexed": true,
          "internalType": "uint256",
          "name": "tokenId",
          "type": "uint256"
        }
      ],
      "name": "Revoke",
      "type": "event"
    },
    {
      "anonymous": false,
      "inputs": [
        {
          "indexed": true,
          "internalType": "address",
          "name": "from",
          "type": "address"
        },
        {
          "indexed": true,
          "internalType": "address",
          "name": "to",
          "type": "address"
        },
        {
          "indexed": true,
          "internalType": "uint256",
          "name": "tokenId",
          "type": "uint256"
        }
      ],
      "name": "Transfer",
      "type": "event"
    },
    {
      "anonymous": false,
      "inputs": [
        {
          "indexed": false,
          "internalType": "address",
          "name": "to",
          "type": "address"
        },
        {
          "indexed": false,
          "internalType": "uint256",
          "name": "amount",
          "type": "uint256"
        }
      ],
      "name": "Withdrawn",
      "type": "event"
    },
    {
      "inputs": [
        {
          "internalType": "address",
          "name": "",
          "type": "address"
        },
        {
          "internalType": "uint256",
          "name": "",
          "type": "uint256"
        }
      ],
      "name": "approve",
      "outputs": [],
      "stateMutability": "pure",
      "type": "function"
    },
    {
      "inputs": [
        {
          "internalType": "address",
          "name": "owner",
          "type": "address"
        }
      ],
      "name": "balanceOf",
      "outputs": [
        {
          "internalType": "uint256",
          "name": "",
          "type": "uint256"
        }
      ],
      "stateMutability": "view",
      "type": "function"
    },
    {
      "inputs": [
        {
          "internalType": "uint256",
          "name": "tokenId",
          "type": "uint256"
        }
      ],
      "name": "burn",
      "outputs": [],
      "stateMutability": "nonpayable",
      "type": "function"
    },
    {
      "inputs": [
        {
          "internalType": "uint256",
          "name": "",
          "type": "uint256"
        }
      ],
      "name": "getApproved",
      "outputs": [
        {
          "internalType": "address",
          "name": "",
          "type": "address"
        }
      ],
      "stateMutability": "pure",
      "type": "function"
    },
    {
      "inputs": [
        {
          "internalType": "address",
          "name": "",
          "type": "address"
        },
        {
          "internalType": "address",
          "name": "",
          "type": "address"
        }
      ],
      "name": "isApprovedForAll",
      "outputs": [
        {
          "internalType": "bool",
          "name": "",
          "type": "bool"
        }
      ],
      "stateMutability": "pure",
      "type": "function"
    },
    {
      "inputs": [
        {
          "internalType": "address",
          "name": "to",
          "type": "address"
        },
        {
          "internalType": "string",
          "name": "uri",
          "type": "string"
        }
      ],
      "name": "mint",
      "outputs": [
        {
          "internalType": "uint256",
          "name": "",
          "type": "uint256"
        }
      ],
      "stateMutability": "nonpayable",
      "type": "function"
    },
    {
      "inputs": [],
      "name": "mintPrice",
      "outputs": [
        {
          "internalType": "uint256",
          "name": "",
          "type": "uint256"
        }
      ],
      "stateMutability": "view",
      "type": "function"
    },
    {
      "inputs": [
        {
          "internalType": "string",
          "name": "uri",
          "type": "string"
        }
      ],
      "name": "mintWithPayment",
      "outputs": [
        {
          "internalType": "uint256",
          "name": "",
          "type": "uint256"
        }
      ],
      "stateMutability": "payable",
      "type": "function"
    },
    {
      "inputs": [],
      "name": "name",
      "outputs": [
        {
          "internalType": "string",
          "name": "",
          "type": "string"
        }
      ],
      "stateMutability": "view",
      "type": "function"
    },
    {
      "inputs": [],
      "name": "owner",
      "outputs": [
        {
          "internalType": "address",
          "name": "",
          "type": "address"
        }
      ],
      "stateMutability": "view",
      "type": "function"
    },
    {
      "inputs": [
        {
          "internalType": "uint256",
          "name": "tokenId",
          "type": "uint256"
        }
      ],
      "name": "ownerOf",
      "outputs": [
        {
          "internalType": "address",
          "name": "",
          "type": "address"
        }
      ],
      "stateMutability": "view",
      "type": "function"
    },
    {
      "inputs": [],
      "name": "renounceOwnership",
      "outputs": [],
      "stateMutability": "nonpayable",
      "type": "function"
    },
    {
      "inputs": [
        {
          "internalType": "address",
          "name": "",
          "type": "address"
        },
        {
          "internalType": "address",
          "name": "",
          "type": "address"
        },
        {
          "internalType": "uint256",
          "name": "",
          "type": "uint256"
        }
      ],
      "name": "safeTransferFrom",
      "outputs": [],
      "stateMutability": "pure",
      "type": "function"
    },
    {
      "inputs": [
        {
          "internalType": "address",
          "name": "",
          "type": "address"
        },
        {
          "internalType": "address",
          "name": "",
          "type": "address"
        },
        {
          "internalType": "uint256",
          "name": "",
          "type": "uint256"
        },
        {
          "internalType": "bytes",
          "name": "",
          "type": "bytes"
        }
      ],
      "name": "safeTransferFrom",
      "outputs": [],
      "stateMutability": "pure",
      "type": "function"
    },
    {
      "inputs": [
        {
          "internalType": "address",
          "name": "",
          "type": "address"
        },
        {
          "internalType": "bool",
          "name": "",
          "type": "bool"
        }
      ],
      "name": "setApprovalForAll",
      "outputs": [],
      "stateMutability": "pure",
      "type": "function"
    },
    {
      "inputs": [
        {
          "internalType": "uint256",
          "name": "newPrice",
          "type": "uint256"
        }
      ],
      "name": "setMintPrice",
      "outputs": [],
      "stateMutability": "nonpayable",
      "type": "function"
    },
    {
      "inputs": [
        {
          "internalType": "bytes4",
          "name": "interfaceId",
          "type": "bytes4"
        }
      ],
      "name": "supportsInterface",
      "outputs": [
        {
          "internalType": "bool",
          "name": "",
          "type": "bool"
        }
      ],
      "stateMutability": "view",
      "type": "function"
    },
    {
      "inputs": [],
      "name": "symbol",
      "outputs": [
        {
          "internalType": "string",
          "name": "",
          "type": "string"
        }
      ],
      "stateMutability": "view",
      "type": "function"
    },
    {
      "inputs": [
        {
          "internalType": "uint256",
          "name": "tokenId",
          "type": "uint256"
        }
      ],
      "name": "tokenURI",
      "outputs": [
        {
          "internalType": "string",
          "name": "",
          "type": "string"
        }
      ],
      "stateMutability": "view",
      "type": "function"
    },
    {
      "inputs": [
        {
          "internalType": "address",
          "name": "",
          "type": "address"
        },
        {
          "internalType": "address",
          "name": "",
          "type": "address"
        },
        {
          "internalType": "uint256",
          "name": "",
          "type": "uint256"
        }
      ],
      "name": "transferFrom",
      "outputs": [],
      "stateMutability": "pure",
      "type": "function"
    },
    {
      "inputs": [
        {
          "internalType": "address",
          "name": "newOwner",
          "type": "address"
        }
      ],
      "name": "transferOwnership",
      "outputs": [],
      "stateMutability": "nonpayable",
      "type": "function"
    },
    {
      "inputs": [
        {
          "internalType": "address payable",
          "name": "to",
          "type": "address"
        }
      ],
      "name": "withdraw",
      "outputs": [],
      "stateMutability": "nonpayable",
      "type": "function"
    },
    {
      "stateMutability": "payable",
      "type": "receive"
    }
  ],
  "bytecode": "0x60806040526001600355670de0b6b3a764000060045534801561002157600080fd5b50604051612d9e380380612d9e83398181016040528101906100439190610326565b33600073ffffffffffffffffffffffffffffffffffffffff168173ffffffffffffffffffffffffffffffffffffffff16036100b65760006040517f1e4fbdf70000000000000000000000000000000000000000000000000000000081526004016100ad91906103df565b60405180910390fd5b6100c5816100ed60201b60201c565b5081600190816100d5919061061b565b5080600290816100e5919061061b565b5050506106ed565b60008060009054906101000a900473ffffffffffffffffffffffffffffffffffffffff169050816000806101000a81548173ffffffffffffffffffffffffffffffffffffffff021916908373ffffffffffffffffffffffffffffffffffffffff1602179055508173ffffffffffffffffffffffffffffffffffffffff168173ffffffffffffffffffffffffffffffffffffffff167f8be0079c531659141344cd1fd0a4f28419497f9722a3daafe3b4186f6b6457e060405160405180910390a35050565b6000604051905090565b600080fd5b600080fd5b600080fd5b600080fd5b6000601f19601f8301169050919050565b7f4e487b7100000000000000000000000000000000000000000000000000000000600052604160045260246000fd5b610218826101cf565b810181811067ffffffffffffffff82111715610237576102366101e0565b5b80604052505050565b600061024a6101b1565b9050610256828261020f565b919050565b600067ffffffffffffffff821115610276576102756101e0565b5b61027f826101cf565b9050602081019050919050565b60005b838110156102aa57808201518184015260208101905061028f565b60008484015250505050565b60006102c96102c48461025b565b610240565b9050828152602081018484840111156102e5576102e46101ca565b5b6102f084828561028c565b509392505050565b600082601f83011261030d5761030c6101c5565b5b815161031d8482602086016102b6565b91505092915050565b6000806040838503121561033d5761033c6101bb565b5b600083015167ffffffffffffffff81111561035b5761035a6101c0565b5b610367858286016102f8565b925050602083015167ffffffffffffffff811115610388576103876101c0565b5b610394858286016102f8565b9150509250929050565b600073ffffffffffffffffffffffffffffffffffffffff82169050919050565b60006103c98261039e565b9050919050565b6103d9816103be565b82525050565b60006020820190506103f460008301846103d0565b92915050565b600081519050919050565b7f4e487b7100000000000000000000000000000000000000000000000000000000600052602260045260246000fd5b6000600282049050600182168061044c57607f821691505b60208210810361045f5761045e610405565b5b50919050565b60008190508160005260206000209050919050565b60006020601f8301049050919050565b600082821b905092915050565b6000600883026104c77fffffffffffffffffffffffffffffffffffffffffffffffffffffffffffffffff8261048a565b6104d1868361048a565b95508019841693508086168417925050509392505050565b6000819050919050565b6000819050919050565b600061051861051361050e846104e9565b6104f3565b6104e9565b9050919050565b6000819050919050565b610532836104fd565b61054661053e8261051f565b848454610497565b825550505050565b600090565b61055b61054e565b610566818484610529565b505050565b5b8181101561058a5761057f600082610553565b60018101905061056c565b5050565b601f8211156105cf576105a081610465565b6105a98461047a565b810160208510156105b8578190505b6105cc6105c48561047a565b83018261056b565b50505b505050565b600082821c905092915050565b60006105f2600019846008026105d4565b1980831691505092915050565b600061060b83836105e1565b9150826002028217905092915050565b610624826103fa565b67ffffffffffffffff81111561063d5761063c6101e0565b5b6106478254610434565b61065282828561058e565b600060209050601f8311600181146106855760008415610673578287015190505b61067d85826105ff565b8655506106e5565b601f19841661069386610465565b60005b828110156106bb57848901518255600182019150602085019450602081019050610696565b868310156106d857848901516106d4601f8916826105e1565b8355505b6001600288020188555050505b505050505050565b6126a2806106fc6000396000f3fe6080604052600436106101395760003560e01c8063715018a6116100ab578063c87b56dd1161006f578063c87b56dd1461041b578063d0def52114610458578063e985e9c514610495578063f2fde38b146104d2578063f4a0a528146104fb578063f58d44eb1461052457610140565b8063715018a61461035c5780638da5cb5b1461037357806395d89b411461039e578063a22cb465146103c9578063b88d4fde146103f257610140565b806342842e0e116100fd57806342842e0e1461023c57806342966c681461026557806351cff8d91461028e5780636352211e146102b75780636817c76c146102f457806370a082311461031f57610140565b806301ffc9a71461014557806306fdde0314610182578063081812fc146101ad578063095ea7b3146101ea57806323b872dd1461021357610140565b3661014057005b600080fd5b34801561015157600080fd5b5061016c60048036038101906101679190611784565b610554565b60405161017991906117cc565b60405180910390f35b34801561018e57600080fd5b50610197610636565b6040516101a49190611877565b60405180910390f35b3480156101b957600080fd5b506101d460048036038101906101cf91906118cf565b6106c8565b6040516101e1919061193d565b60405180910390f35b3480156101f657600080fd5b50610211600480360381019061020c9190611984565b610705565b005b34801561021f57600080fd5b5061023a600480360381019061023591906119c4565b610740565b005b34801561024857600080fd5b50610263600480360381019061025e91906119c4565b61077b565b005b34801561027157600080fd5b5061028c600480360381019061028791906118cf565b6107b6565b005b34801561029a57600080fd5b506102b560048036038101906102b09190611a55565b6108ea565b005b3480156102c357600080fd5b506102de60048036038101906102d991906118cf565b6109e1565b6040516102eb919061193d565b60405180910390f35b34801561030057600080fd5b50610309610a94565b6040516103169190611a91565b60405180910390f35b34801561032b57600080fd5b5061034660048036038101906103419190611aac565b610a9a565b6040516103539190611a91565b60405180910390f35b34801561036857600080fd5b50610371610b51565b005b34801561037f57600080fd5b50610388610b65565b604051610395919061193d565b60405180910390f35b3480156103aa57600080fd5b506103b3610b8e565b6040516103c09190611877565b60405180910390f35b3480156103d557600080fd5b506103f060048036038101906103eb9190611b05565b610c20565b005b3480156103fe57600080fd5b5061041960048036038101906104149190611c7a565b610c5b565b005b34801561042757600080fd5b50610442600480360381019061043d91906118cf565b610c96565b60405161044f9190611877565b60405180910390f35b34801561046457600080fd5b5061047f600480360381019061047a9190611d9e565b610d85565b60405161048c9190611a91565b60405180910390f35b3480156104a157600080fd5b506104bc60048036038101906104b79190611dfa565b610eb3565b6040516104c991906117cc565b60405180910390f35b3480156104de57600080fd5b506104f960048036038101906104f49190611aac565b610ebb565b005b34801561050757600080fd5b50610522600480360381019061051d91906118cf565b610f41565b005b61053e60048036038101906105399190611e3a565b610f94565b60405161054b9190611a91565b60405180910390f35b60007f80ac58cd000000000000000000000000000000000000000000000000000000007bffffffffffffffffffffffffffffffffffffffffffffffffffffffff1916827bffffffffffffffffffffffffffffffffffffffffffffffffffffffff1916148061061f57507f5b5e139f000000000000000000000000000000000000000000000000000000007bffffffffffffffffffffffffffffffffffffffffffffffffffffffff1916827bffffffffffffffffffffffffffffffffffffffffffffffffffffffff1916145b8061062f575061062e82611109565b5b9050919050565b60606001805461064590611eb2565b80601f016020809104026020016040519081016040528092919081815260200182805461067190611eb2565b80156106be5780601f10610693576101008083540402835291602001916106be565b820191906000526020600020905b8154815290600101906020018083116106a157829003601f168201915b5050505050905090565b60006040517fa72106650000000000000000000000000000000000000000000000000000000081526004016106fc90611f2f565b60405180910390fd5b6040517fa721066500000000000000000000000000000000000000000000000000000000815260040161073790611f2f565b60405180910390fd5b6040517fa721066500000000000000000000000000000000000000000000000000000000815260040161077290611f9b565b60405180910390fd5b6040517fa72106650000000000000000000000000000000000000000000000000000000081526004016107ad90611f9b565b60405180910390fd5b60006107c1826109e1565b90508073ffffffffffffffffffffffffffffffffffffffff163373ffffffffffffffffffffffffffffffffffffffff161415801561089957503073ffffffffffffffffffffffffffffffffffffffff16638da5cb5b6040518163ffffffff1660e01b8152600401602060405180830381865afa158015610845573d6000803e3d6000fd5b505050506040513d601f19601f820116820180604052508101906108699190611fd0565b73ffffffffffffffffffffffffffffffffffffffff163373ffffffffffffffffffffffffffffffffffffffff1614155b156108dd5733826040517fda4720230000000000000000000000000000000000000000000000000000000081526004016108d4929190611ffd565b60405180910390fd5b6108e682611173565b5050565b6108f2611349565b600047905060008273ffffffffffffffffffffffffffffffffffffffff168260405161091d90612057565b60006040518083038185875af1925050503d806000811461095a576040519150601f19603f3d011682016040523d82523d6000602084013e61095f565b606091505b50509050806109a3576040517f08c379a000000000000000000000000000000000000000000000000000000000815260040161099a906120b8565b60405180910390fd5b7f7084f5476618d8e60b11ef0d7d3f06914655adb8793e28ff7f018d4c76d505d583836040516109d4929190612137565b60405180910390a1505050565b6000806006600084815260200190815260200160002060009054906101000a900473ffffffffffffffffffffffffffffffffffffffff169050600073ffffffffffffffffffffffffffffffffffffffff168173ffffffffffffffffffffffffffffffffffffffff1603610a8b57826040517f3d2f7ef6000000000000000000000000000000000000000000000000000000008152600401610a829190611a91565b60405180910390fd5b80915050919050565b60045481565b60008073ffffffffffffffffffffffffffffffffffffffff168273ffffffffffffffffffffffffffffffffffffffff1603610b0a576040517f08c379a0000000000000000000000000000000000000000000000000000000008152600401610b01906121d2565b60405180910390fd5b600560008373ffffffffffffffffffffffffffffffffffffffff1673ffffffffffffffffffffffffffffffffffffffff168152602001908152602001600020549050919050565b610b59611349565b610b6360006113d0565b565b60008060009054906101000a900473ffffffffffffffffffffffffffffffffffffffff16905090565b606060028054610b9d90611eb2565b80601f0160208091040260200160405190810160405280929190818152602001828054610bc990611eb2565b8015610c165780601f10610beb57610100808354040283529160200191610c16565b820191906000526020600020905b815481529060010190602001808311610bf957829003601f168201915b5050505050905090565b6040517fa7210665000000000000000000000000000000000000000000000000000000008152600401610c5290611f2f565b60405180910390fd5b6040517fa7210665000000000000000000000000000000000000000000000000000000008152600401610c8d90611f9b565b60405180910390fd5b6060610ca182611494565b610ce257816040517f3d2f7ef6000000000000000000000000000000000000000000000000000000008152600401610cd99190611a91565b60405180910390fd5b600860008381526020019081526020016000208054610d0090611eb2565b80601f0160208091040260200160405190810160405280929190818152602001828054610d2c90611eb2565b8015610d795780601f10610d4e57610100808354040283529160200191610d79565b820191906000526020600020905b815481529060010190602001808311610d5c57829003601f168201915b50505050509050919050565b6000610d8f611349565b600073ffffffffffffffffffffffffffffffffffffffff168373ffffffffffffffffffffffffffffffffffffffff1603610dfe576040517f08c379a0000000000000000000000000000000000000000000000000000000008152600401610df590612264565b60405180910390fd5b6000600560008573ffffffffffffffffffffffffffffffffffffffff1673ffffffffffffffffffffffffffffffffffffffff168152602001908152602001600020541115610e8357826040517f893cc576000000000000000000000000000000000000000000000000000000008152600401610e7a919061193d565b60405180910390fd5b600060036000815480929190610e98906122b3565b919050559050610ea9848285611500565b8091505092915050565b600092915050565b610ec3611349565b600073ffffffffffffffffffffffffffffffffffffffff168173ffffffffffffffffffffffffffffffffffffffff1603610f355760006040517f1e4fbdf7000000000000000000000000000000000000000000000000000000008152600401610f2c919061193d565b60405180910390fd5b610f3e816113d0565b50565b610f49611349565b60006004549050816004819055507f2063f24eb8e50478aa99484fcf0f591be5a95d83129c7388c3da4bd776655e7a8183604051610f889291906122fb565b60405180910390a15050565b600080339050600454341015610fe557346004546040517fb99e2ab7000000000000000000000000000000000000000000000000000000008152600401610fdc9291906122fb565b60405180910390fd5b600073ffffffffffffffffffffffffffffffffffffffff168173ffffffffffffffffffffffffffffffffffffffff1603611054576040517f08c379a000000000000000000000000000000000000000000000000000000000815260040161104b90612370565b60405180910390fd5b6000600560008373ffffffffffffffffffffffffffffffffffffffff1673ffffffffffffffffffffffffffffffffffffffff1681526020019081526020016000205411156110d957806040517f893cc5760000000000000000000000000000000000000000000000000000000081526004016110d0919061193d565b60405180910390fd5b6000600360008154809291906110ee906122b3565b9190505590506110ff828286611500565b8092505050919050565b60007f01ffc9a7000000000000000000000000000000000000000000000000000000007bffffffffffffffffffffffffffffffffffffffffffffffffffffffff1916827bffffffffffffffffffffffffffffffffffffffffffffffffffffffff1916149050919050565b600061117e826109e1565b90506001600560008373ffffffffffffffffffffffffffffffffffffffff1673ffffffffffffffffffffffffffffffffffffffff16815260200190815260200160002060008282546111d09190612390565b925050819055506006600083815260200190815260200160002060006101000a81549073ffffffffffffffffffffffffffffffffffffffff0219169055600760008273ffffffffffffffffffffffffffffffffffffffff1673ffffffffffffffffffffffffffffffffffffffff1681526020019081526020016000206000905560086000838152602001908152602001600020600061126f91906116bb565b6009600083815260200190815260200160002060006101000a81549073ffffffffffffffffffffffffffffffffffffffff0219169055818173ffffffffffffffffffffffffffffffffffffffff167fec9ab91322523c899ede7830ec9bfc992b5981cdcc27b91162fb23de5791117b60405160405180910390a381600073ffffffffffffffffffffffffffffffffffffffff168273ffffffffffffffffffffffffffffffffffffffff167fddf252ad1be2c89b69c2b068fc378daa952ba7f163c4a11628f55a4df523b3ef60405160405180910390a45050565b6113516116b3565b73ffffffffffffffffffffffffffffffffffffffff1661136f610b65565b73ffffffffffffffffffffffffffffffffffffffff16146113ce576113926116b3565b6040517f118cdaa70000000000000000000000000000000000000000000000000000000081526004016113c5919061193d565b60405180910390fd5b565b60008060009054906101000a900473ffffffffffffffffffffffffffffffffffffffff169050816000806101000a81548173ffffffffffffffffffffffffffffffffffffffff021916908373ffffffffffffffffffffffffffffffffffffffff1602179055508173ffffffffffffffffffffffffffffffffffffffff168173ffffffffffffffffffffffffffffffffffffffff167f8be0079c531659141344cd1fd0a4f28419497f9722a3daafe3b4186f6b6457e060405160405180910390a35050565b60008073ffffffffffffffffffffffffffffffffffffffff166006600084815260200190815260200160002060009054906101000a900473ffffffffffffffffffffffffffffffffffffffff1673ffffffffffffffffffffffffffffffffffffffff1614159050919050565b6001600560008573ffffffffffffffffffffffffffffffffffffffff1673ffffffffffffffffffffffffffffffffffffffff168152602001908152602001600020600082825461155091906123c4565b92505081905550826006600084815260200190815260200160002060006101000a81548173ffffffffffffffffffffffffffffffffffffffff021916908373ffffffffffffffffffffffffffffffffffffffff16021790555081600760008573ffffffffffffffffffffffffffffffffffffffff1673ffffffffffffffffffffffffffffffffffffffff168152602001908152602001600020819055508060086000848152602001908152602001600020908161160d919061259a565b50818373ffffffffffffffffffffffffffffffffffffffff167fe9274a84b19e9428826de6bae8c48329354f8f0e73f771b97cae2d9dccd45a2760405160405180910390a3818373ffffffffffffffffffffffffffffffffffffffff16600073ffffffffffffffffffffffffffffffffffffffff167fddf252ad1be2c89b69c2b068fc378daa952ba7f163c4a11628f55a4df523b3ef60405160405180910390a4505050565b600033905090565b5080546116c790611eb2565b6000825580601f106116d957506116f8565b601f0160209004906000526020600020908101906116f791906116fb565b5b50565b5b808211156117145760008160009055506001016116fc565b5090565b6000604051905090565b600080fd5b600080fd5b60007fffffffff0000000000000000000000000000000000000000000000000000000082169050919050565b6117618161172c565b811461176c57600080fd5b50565b60008135905061177e81611758565b92915050565b60006020828403121561179a57611799611722565b5b60006117a88482850161176f565b91505092915050565b60008115159050919050565b6117c6816117b1565b82525050565b60006020820190506117e160008301846117bd565b92915050565b600081519050919050565b600082825260208201905092915050565b60005b83811015611821578082015181840152602081019050611806565b60008484015250505050565b6000601f19601f8301169050919050565b6000611849826117e7565b61185381856117f2565b9350611863818560208601611803565b61186c8161182d565b840191505092915050565b60006020820190508181036000830152611891818461183e565b905092915050565b6000819050919050565b6118ac81611899565b81146118b757600080fd5b50565b6000813590506118c9816118a3565b92915050565b6000602082840312156118e5576118e4611722565b5b60006118f3848285016118ba565b91505092915050565b600073ffffffffffffffffffffffffffffffffffffffff82169050919050565b6000611927826118fc565b9050919050565b6119378161191c565b82525050565b6000602082019050611952600083018461192e565b92915050565b6119618161191c565b811461196c57600080fd5b50565b60008135905061197e81611958565b92915050565b6000806040838503121561199b5761199a611722565b5b60006119a98582860161196f565b92505060206119ba858286016118ba565b9150509250929050565b6000806000606084860312156119dd576119dc611722565b5b60006119eb8682870161196f565b93505060206119fc8682870161196f565b9250506040611a0d868287016118ba565b9150509250925092565b6000611a22826118fc565b9050919050565b611a3281611a17565b8114611a3d57600080fd5b50565b600081359050611a4f81611a29565b92915050565b600060208284031215611a6b57611a6a611722565b5b6000611a7984828501611a40565b91505092915050565b611a8b81611899565b82525050565b6000602082019050611aa66000830184611a82565b92915050565b600060208284031215611ac257611ac1611722565b5b6000611ad08482850161196f565b91505092915050565b611ae2816117b1565b8114611aed57600080fd5b50565b600081359050611aff81611ad9565b92915050565b60008060408385031215611b1c57611b1b611722565b5b6000611b2a8582860161196f565b9250506020611b3b85828601611af0565b9150509250929050565b600080fd5b600080fd5b7f4e487b7100000000000000000000000000000000000000000000000000000000600052604160045260246000fd5b611b878261182d565b810181811067ffffffffffffffff82111715611ba657611ba5611b4f565b5b80604052505050565b6000611bb9611718565b9050611bc58282611b7e565b919050565b600067ffffffffffffffff821115611be557611be4611b4f565b5b611bee8261182d565b9050602081019050919050565b82818337600083830152505050565b6000611c1d611c1884611bca565b611baf565b905082815260208101848484011115611c3957611c38611b4a565b5b611c44848285611bfb565b509392505050565b600082601f830112611c6157611c60611b45565b5b8135611c71848260208601611c0a565b91505092915050565b60008060008060808587031215611c9457611c93611722565b5b6000611ca28782880161196f565b9450506020611cb38782880161196f565b9350506040611cc4878288016118ba565b925050606085013567ffffffffffffffff811115611ce557611ce4611727565b5b611cf187828801611c4c565b91505092959194509250565b600067ffffffffffffffff821115611d1857611d17611b4f565b5b611d218261182d565b9050602081019050919050565b6000611d41611d3c84611cfd565b611baf565b905082815260208101848484011115611d5d57611d5c611b4a565b5b611d68848285611bfb565b509392505050565b600082601f830112611d8557611d84611b45565b5b8135611d95848260208601611d2e565b91505092915050565b60008060408385031215611db557611db4611722565b5b6000611dc38582860161196f565b925050602083013567ffffffffffffffff811115611de457611de3611727565b5b611df085828601611d70565b9150509250929050565b60008060408385031215611e1157611e10611722565b5b6000611e1f8582860161196f565b9250506020611e308582860161196f565b9150509250929050565b600060208284031215611e5057611e4f611722565b5b600082013567ffffffffffffffff811115611e6e57611e6d611727565b5b611e7a84828501611d70565b91505092915050565b7f4e487b7100000000000000000000000000000000000000000000000000000000600052602260045260246000fd5b60006002820490506001821680611eca57607f821691505b602082108103611edd57611edc611e83565b5b50919050565b7f5342542063616e6e6f7420626520617070726f76656400000000000000000000600082015250565b6000611f196016836117f2565b9150611f2482611ee3565b602082019050919050565b60006020820190508181036000830152611f4881611f0c565b9050919050565b7f5342542063616e6e6f74206265207472616e7366657272656400000000000000600082015250565b6000611f856019836117f2565b9150611f9082611f4f565b602082019050919050565b60006020820190508181036000830152611fb481611f78565b9050919050565b600081519050611fca81611958565b92915050565b600060208284031215611fe657611fe5611722565b5b6000611ff484828501611fbb565b91505092915050565b6000604082019050612012600083018561192e565b61201f6020830184611a82565b9392505050565b600081905092915050565b50565b6000612041600083612026565b915061204c82612031565b600082019050919050565b600061206282612034565b9150819050919050565b7f5769746864726177616c206661696c6564000000000000000000000000000000600082015250565b60006120a26011836117f2565b91506120ad8261206c565b602082019050919050565b600060208201905081810360008301526120d181612095565b9050919050565b6000819050919050565b60006120fd6120f86120f3846118fc565b6120d8565b6118fc565b9050919050565b600061210f826120e2565b9050919050565b600061212182612104565b9050919050565b61213181612116565b82525050565b600060408201905061214c6000830185612128565b6121596020830184611a82565b9392505050565b7f5342543a2061646472657373207a65726f206973206e6f7420612076616c696460008201527f206f776e65720000000000000000000000000000000000000000000000000000602082015250565b60006121bc6026836117f2565b91506121c782612160565b604082019050919050565b600060208201905081810360008301526121eb816121af565b9050919050565b7f5342543a2063616e6074206d696e7420746f20746865207a65726f206164647260008201527f6573730000000000000000000000000000000000000000000000000000000000602082015250565b600061224e6023836117f2565b9150612259826121f2565b604082019050919050565b6000602082019050818103600083015261227d81612241565b9050919050565b7f4e487b7100000000000000000000000000000000000000000000000000000000600052601160045260246000fd5b60006122be82611899565b91507fffffffffffffffffffffffffffffffffffffffffffffffffffffffffffffffff82036122f0576122ef612284565b5b600182019050919050565b60006040820190506123106000830185611a82565b61231d6020830184611a82565b9392505050565b7f5342543a206d696e7420746f20746865207a65726f2061646472657373000000600082015250565b600061235a601d836117f2565b915061236582612324565b602082019050919050565b600060208201905081810360008301526123898161234d565b9050919050565b600061239b82611899565b91506123a683611899565b92508282039050818111156123be576123bd612284565b5b92915050565b60006123cf82611899565b91506123da83611899565b92508282019050808211156123f2576123f1612284565b5b92915050565b60008190508160005260206000209050919050565b60006020601f8301049050919050565b600082821b905092915050565b60006008830261245a7fffffffffffffffffffffffffffffffffffffffffffffffffffffffffffffffff8261241d565b612464868361241d565b95508019841693508086168417925050509392505050565b600061249761249261248d84611899565b6120d8565b611899565b9050919050565b6000819050919050565b6124b18361247c565b6124c56124bd8261249e565b84845461242a565b825550505050565b600090565b6124da6124cd565b6124e58184846124a8565b505050565b5b81811015612509576124fe6000826124d2565b6001810190506124eb565b5050565b601f82111561254e5761251f816123f8565b6125288461240d565b81016020851015612537578190505b61254b6125438561240d565b8301826124ea565b50505b505050565b600082821c905092915050565b600061257160001984600802612553565b1980831691505092915050565b600061258a8383612560565b9150826002028217905092915050565b6125a3826117e7565b67ffffffffffffffff8111156125bc576125bb611b4f565b5b6125c68254611eb2565b6125d182828561250d565b600060209050601f83116001811461260457600084156125f2578287015190505b6125fc858261257e565b865550612664565b601f198416612612866123f8565b60005b8281101561263a57848901518255600182019150602085019450602081019050612615565b868310156126575784890151612653601f891682612560565b8355505b6001600288020188555050505b50505050505056fea2646970667358221220e0b4834931188290fe88c4a39673de0d93493857a003c32ae93406d78e49461564736f6c634300081c0033",
  "linkReferences": {},
  "deployedLinkReferences": {}
}